:100000000C94C9010C94E8010C94E8010C94E801EB
:100010000C94E8010C94E8010C94E8010C94E801BC
:100020000C94E8010C94E8010C94E8010C94E801AC
:100030000C94E8010C94E8010C94E8010C94E8019C
:100040000C94E8010C94E8010C94E8010C94E8018C
:100050000C94E8010C94E8010C94E8010C94E8017C
:100060000C94E8010C94E8010C94E8010C94E8016C
:100070000C94E8010C94E8010C94E8010C94E8015C
:100080000C94E1060C94E8010C94E8011C091F098A
:10009000220925090909090909092809090909097C
:1000A000090919090909090909091C09FB0B090CA6
:1000B000170C220C2F0C420C070B330BF90CF90C0C
:1000C0005E0C5E0C5C0C5C0CE00EE00E870E870E86
:1000D000B40DB40D440DDC0FC014A6142D154B1433
:1000E000D814EF13A3135C133F13F7129F1254128B
:1000F0003B12DE0B19123612181BAF1A6E0CAF1A18
:100100006E0C1F1A6E0CE8191C191C191C191C19ED
:100110001C191C191C191C195A1F5A1FEA1EEA1E09
:100120006E0C6E0C6E0C6E0C371E371E951F951FD5
:10013000371E371E951F951F01300130BB2FBB2F77
:10014000E82F34302331EF305531703089309C3016
:10015000C730622F862F862F073B683B603B563B9C
:10016000C33A7B3B733B413B393BE63A033BC33AE3
:10017000C33A333BC33A223B163F0E3F433E023F56
:10018000433E433E433ED53E433E433E433E433ED5
:10019000433E433E433EC33E433E433E433E433ED7
:1001A000433E433E433E433E433E433E433E433E47
:1001B000433E433E433E9F3E433E433E433E433EDB
:1001C000433E433E433E433E433E433E433E433E27
:1001D000433E433E433E433E433E433E433E433E17
:1001E000433E433E433E433E433E433E433E433E07
:1001F000433E433E433E573E0B4C354C124C034C62
:10020000FE4BF54BF54BF94BEE4B7B4C734C6D4C69
:10021000404C674C5B4C554C614C834C0E520E521B
:100220000E52F651F651F651D451D451D451C45115
:10023000C451C451B351B351B351315231523152FF
:100240001E521E521E521E521E521E52A751A7511E
:10025000A7519751975197513B513B513B513B51BE
:100260003B513B5175517551755164516451645105
:100270005251525152518551855185518551855167
:10028000855143563D56375631563C553C553C55A5
:100290003C552B5625563C553C553C553C551D561A
:1002A000175611560B563C553C553C553C553C5544
:1002B0003C553C553C553C553C553C553C553C55B6
:1002C0003C553C553C553C553C553C553C553C55A6
:1002D0003C553C553C553C553C553C553C553C5596
:1002E0003C553C553C553C553C553C553C553C5586
:1002F0003C553C553C553C553C553C553C553C5576
:100300003C553C553C553C553C553C553C553C5565
:100310003C553C553C553C553C553C553C553C5555
:100320003C553C553C553C553C553C553C553C5545
:100330003C553C553C553C553C553C553C553C5535
:100340003C553C553C553C553C553C553C553C5525
:100350003C553C553C553C553C553C553C553C5515
:100360003C553C553C553C553C553C553C553C5505
:100370003C553C553C553C553C553C553C553C55F5
:100380003C550556FF55F955F355ED55E755DF55E5
:10039000D75511241FBECFEFD0E4DEBFCDBF16E08E
:1003A000A0E0B1E0E2EBF9EB00E00BBF02C0079088
:1003B0000D92AA38B107D9F719E3AAE8B6E001C04F
:1003C0001D92A13FB107E1F70E94A8070C94D75CEA
:1003D0000C940000249A259A2698279A81E58CBDD2
:1003E00081E08DBD85B1806B85B90895FC012C9AA3
:1003F0008FEF8EBD0DB407FEFDCF8EB52C9880819A
:100400008EBD0DB407FEFDCF8EB581818EBD0DB4BE
:1004100007FEFDCF8EB582818EBD0DB407FEFDCFE8
:100420008EB583818EBD0DB407FEFDCF8EB5848160
:100430008EBD0DB407FEFDCF8EB585818EBD0DB48A
:1004400007FEFDCF8EB598EC2FEF2EBD0DB407FE45
:10045000FDCF8EB5915011F08F3FB9F308952F92D3
:100460003F924F925F926F927F928F929F92AF9244
:10047000BF92CF92DF92EF92FF920F931F93CF9391
:10048000DF93CDB7DEB728970FB6F894DEBF0FBE67
:10049000CDBF98878F83DC018C9190E086FB22246E
:1004A00020F8312C6C01CC0CCD2CCC1CDD08CC0CF4
:1004B000DD1C2C283D28442437FC4094542C82FB1E
:1004C000662460F8712C83FBAA27A0F9B0E0AA0F7C
:1004D000BB1F84FB222720F930E0220F331F220F9D
:1004E000331F262937292A2B3B2B85FB662760F9EA
:1004F00070E0660F771F660F771F660F771F262B3A
:10050000372B211431044104510419F0232B09F431
:1005100008C181E4482E512C612C712C812C912C26
:100520005401A1E4B0E0B301A20103E07695679520
:10053000579547950A95D1F7EF81F8854E0F5F1FC4
:10054000FA01808190E0B301A20140955095609539
:100550007095477055276627772702C09595879530
:100560004A95E2F781709927BD016419750902C0A7
:10057000880F991F6A95E2F7AC01662757FD6095D1
:10058000762F842A952AA62AB72AF1E04F1A510815
:100590006108710825E3421651046104710419F6DB
:1005A000AF81B8851996DC90199715962C91822FFA
:1005B00022FBBB27B0F9B9831A82E981FA81EE0FD9
:1005C000FF1FEE0FFF1F2F01662457FC6094762C4F
:1005D0002170422A81FB002700F910E0000F111F53
:1005E000222717FD2095322F402A512A622A732A8A
:1005F00083FBFF27F0F9FB831C822B813C81220FB8
:10060000331F220F331F220F331FA901662757FD07
:100610006095762F442A552A662A772A61E070E091
:1006200080E090E004C0660F771F881F991F4A94EE
:10063000D2F7A50194012F5F3F4F4F4F5F4FD0FA84
:10064000EE24E0F8F12CEE0CFF1CAF81B8851A9671
:10065000EC91F0E0EE0FEF2FEE1FFF0BEE2AFF2ADA
:10066000D1FADD24D0F8DD821E82ED81FE81EE0F0D
:10067000FF1FEE0FFF1FEE2AFF2AF2E0EF0EF11C24
:1006800004C0220F331F441F551FEA94D2F719E00C
:10069000C12ED12CE12CF12C60FD3AC096958795A6
:1006A00077956795A1E0CA1AD108E108F108C1144D
:1006B000D104E104F10481F7E0E00E948C5704C00A
:1006C0009695879577956795EA95D2F728960FB610
:1006D000F894DEBF0FBECDBFDF91CF911F910F9178
:1006E000FF90EF90DF90CF90BF90AF909F908F9052
:1006F0007F906F905F904F903F902F900895569508
:10070000479537952795B1E0CB1AD108E108F10854
:10071000C114D104E104F10479F220FFF0CFEC2DF3
:10072000CCCFE1E02E16310441045104B9F01F9200
:100730001F921F921F925F924F923F922F9286EBD1
:1007400091E09F938F930E94AD580FB6F894DEBF4F
:100750000FBECDBF60E070E0CB01B8CF8FE490E07A
:10076000A0E0B0E0C12CD12C76010FE410E0AC0188
:10077000BD0123E076956795579547952A95D1F762
:100780002F813885420F531FFA01208130E0AC01E0
:10079000BD01409550956095709547705527662727
:1007A000772702C0359527954A95E2F721703327C0
:1007B000A801481B590B02C0220F331F4A95E2F7CC
:1007C000A901662757FD6095762FC42AD52AE62A07
:1007D000F72A0197A109B10989339105A105B1054E
:1007E00031F6C701B601AAE0660F771F881F991F6F
:1007F000AA95D1F76BCF8F929F92AF92BF92CF9273
:10080000DF92EF92FF920F931F93CF93DF93CDB7B9
:10081000DEB760970FB6F894DEBF0FBECDBF2C9841
:100820008FE090E02FEF2EBD0DB407FEFDCF3EB55B
:1008300001970097C1F788E191E00E94F60100E17D
:1008400010E0813089F188E191E00E94F6010F5FAC
:100850001F4F083C1105A9F72C9A88248A949924E3
:100860009A94AA24AA94BB24BA94CC24CA94DD24D2
:10087000DA94EE24EA94FF24FA949401A501B601D7
:10088000C70160960FB6F894DEBF0FBECDBFDF91F3
:10089000CF911F910F91FF90EF90DF90CF90BF907D
:1008A000AF909F908F90089582E191E00E94F601B1
:1008B0000FEC17E009C082E191E00E94F6010150BF
:1008C00011090115110539F18111F5CF2C9A2C98D8
:1008D0008CE091E00E94F601811121C0FE01319669
:1008E000CE0141963FEF3EBD0DB407FEFDCF2EB5C4
:1008F0002193E817F907B9F72C9A80E58CBD81E0C0
:100900008DBDCE0101960E942F024B015C01C12CCE
:10091000D12C7601B2CF2C9A6EEF862EA0CF2C9AD6
:100920007DEF872E9CCFFF920F931F93CF93DF9382
:10093000EC010E94EA010E94FB03F22EB32FF42F78
:10094000E52FA0E00E943E584CF10F2D1B2F2F2FBA
:100950003E2F088319832A833B838C8181608C839B
:10096000E9E0000F111F221F331FEA95D1F73F93D3
:100970002F931F930F9387EF91E09F938F930E9484
:10098000AD580F900F900F900F900F900F9081E047
:10099000DF91CF911F910F91FF90089518821982D6
:1009A0001A821B8280E0DF91CF911F910F91FF90FF
:1009B0000895FC0160817181828193810895DF92A5
:1009C000EF92FF920F931F93CF93DF93F22E132F8B
:1009D000FC0180819181A281B381481759076A0780
:1009E0007B0708F063C0DB01CA019A01AD0160E03A
:1009F00070E080E090E009E00E94FE57D22EE32EE6
:100A0000D42FC52FB62FA72FF82FE92F08E10E946A
:100A10001958209301012D2D3E2D4D2F5C2F6B2F4A
:100A20007A2F8F2F9E2F00E10E94195820930201E8
:100A30002D2D3E2D4D2F5C2F6B2F7A2F8F2F9E2F1C
:100A400008E00E941958209303011092040180E0ED
:100A500091E00E94F6019FEF9EBD0DB407FEFDCF11
:100A60008EB58E3FC9F7EF2DF12FCF019E5F3FEF7F
:100A70003EBD0DB407FEFDCF2EB52193E817F90753
:100A8000B9F78FEF8EBD0DB407FEFDCF8EB58FEF9A
:100A90008EBD0DB407FEFDCF8EB581E0DF91CF9105
:100AA0001F910F91FF90EF90DF900895BF93AF9348
:100AB0009F938F937F936F935F934F9384E092E024
:100AC0009F938F930E94AD588DB79EB70A960FB62D
:100AD000F8949EBF0FBE8DBF80E0DF91CF911F9134
:100AE0000F91FF90EF90DF900895DF92EF92FF92C9
:100AF0000F931F93CF93DF93F22E132FFC0180816E
:100B00009181A281B381481759076A077B0708F0D2
:100B10006FC0DB01CA019A01AD0160E070E080E0C6
:100B200090E009E00E94FE57D22EE32ED42FC52F6D
:100B3000B62FA72FF82FE92F08E10E94195820930C
:100B400007012D2D3E2D4D2F5C2F6B2F7A2F8F2FD0
:100B50009E2F00E10E941958209308012D2D3E2D53
:100B60004D2F5C2F6B2F7A2F8F2F9E2F08E00E9426
:100B700019582093090110920A0186E091E00E9421
:100B8000F6018FEF8EBD0DB407FEFDCF8EB58EEF53
:100B90008EBD0DB407FEFDCF8EB5EF2DF12FCF0129
:100BA0009E5F21912EBD0DB407FEFDCF2EB5E81737
:100BB000F907B9F78FEF8EBD0DB407FEFDCF8EB5E7
:100BC0008FEF8EBD0DB407FEFDCF8EB58FEF8EBDBE
:100BD0000DB407FEFDCF9EB581E0953009F080E0B1
:100BE000DF91CF911F910F91FF90EF90DF900895CB
:100BF000BF93AF939F938F937F936F935F934F9325
:100C000082E492E09F938F930E94AD588DB79EB778
:100C10000A960FB6F8949EBF0FBE8DBF80E0DF919D
:100C2000CF911F910F91FF90EF90DF9008958091E9
:100C3000C00087FF04C08091C60090E008958EEF49
:100C40009FEF08959091C00095FFFCCF8093C60060
:100C500008958A3049F09091C00095FFFCCF8093B1
:100C6000C60080E090E008959091C00095FFFCCF11
:100C70009DE09093C600EFCF8EEF9FEF08950F9306
:100C8000CF93DF9300D0CDB7DEB7013029F198F0D4
:100C9000023041F080E090E00F900F90DF91CF9113
:100CA0000F9108950E94750590E00F900F90DF91CD
:100CB000CF910F9108954115510561057105A9F472
:100CC000FC01448140FD22C0F90110821182128290
:100CD000138281E090E0E0CF0E94DF0490E00F906B
:100CE0000F90DF91CF910F9108954130510561052B
:100CF000710581F680E092E0A0E0B0E0F901808328
:100D00009183A283B38381E090E0C6CF29833A83A5
:100D10000E94D90429813A81F90160837183828319
:100D2000938381E090E0B8CFCF93F894F894A8959E
:100D300088E10FB6F89480936000109260000FBEB7
:100D400085B7806885BF85BF1092C500CCE0C09391
:100D5000C4001092C00086E08093C20088E18093B6
:100D6000C1006CE376E089E296E00E9462589FEF52
:100D700091B984B18F6084B997B98AB18C698AB905
:100D80008BB188618BB984E197E7A6E6BFE48093D5
:100D9000E3399093E439A093E539B093E6398BE1D8
:100DA00097EB909399008093980010929000C093D5
:100DB000910082E08093710055985D9A7894CF916C
:100DC00008951F920F920FB60F9211242F938F93B5
:100DD0009F93AF93BF9320918A06222399F080912D
:100DE000E3399091E439A091E539B091E639019663
:100DF000A11DB11D8093E3399093E439A093E539A7
:100E0000B093E63981E0822780938A06BF91AF9143
:100E10009F918F912F910F900FBE0F901F9018955B
:100E20000F931F93F894AFEFA20F2223A1F1FA01C1
:100E300017B85F985A9A5B9862B925B1207F25B997
:100E400035B1272F2F70232B25B95B9A5C988B0126
:100E50009C014CE036952795179507954A95D1F753
:100E600002B925B1207F25B945B18B019C0154E120
:100E700036952795179507955A95D1F70F70042B3E
:100E800005B95C9A26B121935F9A6F5F7F4F8F4FB0
:100E90009F4FA15068F678941F910F9108950F937A
:100EA0001F93F894AFEFA20F2223C1F1FA015FEF75
:100EB00057B9219128B95B9862B925B1207F25B92E
:100EC00035B1272F2F70232B25B95B9A5C988B01A6
:100ED0009C01BCE03695279517950795BA95D1F7F3
:100EE00002B925B1207F25B945B18B019C01B4E140
:100EF0003695279517950795BA95D1F70F70042B5E
:100F000005B95C9A2BB12B772BB92BB124682BB97F
:100F10006F5F7F4F8F4F9F4FA15050F678941F9176
:100F20000F910895EF92FF920F93CB01BA01A701A1
:100F3000011107C00E94100781E00F91FF90EF9010
:100F400008950E944F0781E00F91FF90EF90089560
:100F5000CF93DF9300D000D01F92CDB7DEB70E94B1
:100F600094067894CE0101960E9493048823F1F0B0
:100F700081E892E00E94BF58CE0101966C010FE318
:100F8000E02E06E0F02E02E216E027E136E042E92C
:100F900057E06BEC70E48BE896E00E94FA404D9BC2
:100FA00012C08BE896E00E945442FFCFE7E9F2E0DE
:100FB00093E78091C00085FFFCCF9093C60091918C
:100FC0009111F7CFD5CF85EA92E00E94BF58812CCE
:100FD000912C10EEA12E10EAB12E40E250E06CE010
:100FE00070E02A013B019FEF491A590A690A790A00
:100FF00023E936E0CE0101960E94DF0403E916E002
:101000007501640120E2A801C701B6010E944F07E3
:1010100080E2C80ED11CE11CF11C005E1F4F98E05D
:101020000339190779F782E0980EA11CB11C8114CD
:101030009104A10491EAB90619F0B301A201D1CF3C
:1010400080E092E0A0EEB0EA8093E3089093E40899
:10105000A093E508B093E60881EB92E00E94BF58A8
:10106000A0CFFC013196DC019C91992349F080913D
:10107000C00085FFFCCF9093C60091919111F7CFEE
:1010800008950F931F936091E3397091E439809133
:10109000E5399091E6390091E3391091E4392091D6
:1010A000E5393091E639601771078207930759F7E0
:1010B0001F910F910895CF93DF93CDB7DEB7299796
:1010C0000FB6F894DEBF0FBECDBF1986FE0139966C
:1010D0009E012F5F3F4F05C0495C4293E217F30723
:1010E00081F0462F4F7054E09695879577956795D8
:1010F0005A95D1F74A3080F7405D4293E217F307E3
:1011000081F7CF010E94310829960FB6F894DEBF0F
:101110000FBECDBFDF91CF9108958F929F92AF9276
:10112000BF92CF92DF92EF92FF920F931F93CF93D4
:10113000DF93CDB7DEB760970FB6F894DEBF0FBE72
:10114000CDBF188A8E01005F1F4F9E012F5F3F4F5A
:1011500079016901C094D094EAE08E2E912CA12CE3
:10116000B12CA50194010E949C57E0E3E60FB90160
:10117000CA019601200F311FD801EE938D01611530
:10118000710581059105E1F0AE15BF0551F78FEFAF
:101190009FEF8E0D9F1D0E94310860960FB6F89448
:1011A000DEBF0FBECDBFDF91CF911F910F91FF909A
:1011B000EF90DF90CF90BF90AF909F908F90089569
:1011C000C901E7CF6115710539F0FC01680F791F7E
:1011D0001192E617F707E1F708952115310541054A
:1011E000510579F0DB01FC01BA01A9018D918193D0
:1011F0004150510961097109411551056105710598
:10120000A9F70895462F50E0FA017097E031F105F3
:1012100060F0FC01E05BFE4F0190F081E02D66EE96
:1012200072E0099580E090E00895EA5BFF4F0C942E
:10123000F85784599F4F0895885B9F4F08958C57A6
:101240009F4F089588589F4F08958C5A9F4F089537
:10125000805A9F4F0895DF92EF92FF920F931F9352
:10126000CF93DF937C01D62EEC01C05CDF4F9881D9
:101270009F71961709F45FC0913109F464C081E150
:10128000681709F460C0692FC7010E9402098C0128
:101290006D2DC7010E940209DC010817190709F426
:1012A0004AC0F70144A955A966A977A9F801408366
:1012B000518362837383F70140AD51AD62AD73AD6D
:1012C000F801448355836683778397012C5B3F4FF6
:1012D000F9014081518162817381F8014087518712
:1012E000628773874D915D916D917C911397F701A2
:1012F00044AB55AB66AB77AB14964D915D916D9158
:101300007C91179740AF51AF62AF73AF18968D9134
:101310009D910D90BC91A02DF90180839183A283B2
:10132000B38388819981AA81BB81807E8D2988833E
:101330009983AA83BB83DF91CF911F910F91FF9077
:10134000EF90DF900895F701D701A057BF4F80E0DD
:101350004D915D916D917C9113973496048D158D0F
:10136000268D378D0D931D932D933D93448F558F6F
:10137000668F778F8F5F853059F785CF2F923F9299
:101380004F925F926F927F928F929F92AF92BF9295
:10139000CF92DF92EF92FF920F931F93CF93DF9341
:1013A00000D000D0CDB7DEB71C01122FFC01EC5AE3
:1013B000FE4F0190F081E02D309711F0202F09951C
:1013C00011116EC08101005C1F4FD801CD90DD90DE
:1013D000ED90FC9026013701B0E64B22E7E94E2A5A
:1013E000F10184AD95ADA6ADB7ADC5FC53C024E009
:1013F000822E912CA12CB12CA5019401280F391F0C
:101400004A1F5B1F29833A834B835C83F101E65BB0
:10141000FE4F80809180A280B38030E1830E911CCA
:10142000A11CB11C67E1C1010E942B09D8014D929A
:101430005D926D927C921397F101EC5BFF4FC0823D
:10144000D182E282F38229813A814B815C81D10190
:10145000D8962D933D934D935C93DB97F10184AE29
:1014600095AEA6AEB7AE0F900F900F900F90DF9194
:10147000CF911F910F91FF90EF90DF90CF90BF9091
:10148000AF909F908F907F906F905F904F903F9024
:101490002F90089536E0832E912CA12CB12CACCF47
:1014A0008101005C1F4FD8014D905D906D907C9044
:1014B000F10184AC95ACA6ACB7ACF4E08F0E911CF6
:1014C000A11CB11CF101E65BFE4FC080D180E2801F
:1014D000F3802CE0C20ED11CE11CF11C67E1C101BC
:1014E0000E942B09D301C20180768769F8018083AD
:1014F0009183A283B383F101EC5BFF4F4082518261
:1015000062827382D101D8968D929D92AD92BC92E7
:10151000DB97F101C4AED5AEE6AEF7AEA4CF2F9205
:101520003F924F925F926F927F928F929F92AF9273
:10153000BF92CF92DF92EF92FF920F931F93CF93C0
:10154000DF93CDB7DEB7C154D1090FB6F894DEBF33
:101550000FBECDBF1C012A013B010C8B1D8B2E8BB6
:101560003F8BE88EFC2C9A2C8C01005C1F4F1B8B50
:101570000A8BD8012D913D914D915C912E873F872B
:10158000488B598BDA01C9018F719927AA27BB278C
:1015900011E080319105A105B10529F04F97A10512
:1015A000B10509F010E0D301C2010DE1B695A79590
:1015B000979587950A95D1F78830910518F174FEB3
:1015C00006C080E091E0892781110C94352B80E0E2
:1015D000CF5BDF4F0FB6F894DEBF0FBECDBFDF91FC
:1015E000CF911F910F91FF90EF90DF90CF90BF9020
:1015F000AF909F908F907F906F905F904F903F90B3
:101600002F900895FC01EA5AFF4F0C94F8578E85ED
:101610009F85A889B9897CE1B695A7959795879507
:101620007A95D1F731E0832781704E855F8568898F
:101630007989442777FD43955527662777278417AF
:1016400009F4B8C48E859F85A889B9896EE1B695DD
:10165000A795979587956A95D1F741E08427817082
:1016600074FCB0CFB1CFD301C2015CE1B695A795B0
:10167000979587955A95D1F7582F517058A380FFA9
:1016800002C031E038A3872D9927AA27BB278F7086
:101690009927AA27BB27FC013297EE30F10508F401
:1016A000A4C168A161111AC1D301C201807999272F
:1016B000AA27BB2780399105A105B10511F40C9427
:1016C000A817B301A201442755276079717041150D
:1016D00051056105714011F40C940519D301C20143
:1016E00074E1B695A795979587957A95D1F7382F98
:1016F00031708E859F85A889B989ECE1B695A7954B
:1017000097958795EA95D1F7282F2170822E8E859F
:101710009F85A889B989FDE1B695A7959795879585
:10172000FA95D1F7082F0170D301C20171FC02C0F4
:101730000C94D01567E0B695A795979587956A950F
:10174000D1F78E7163015201BB24CC24DD248823A0
:1017500011F40C948616B601A501082E04C07695E6
:101760006795579547950A94D2F790E2981B04C065
:10177000AA0CBB1CCC1CDD1C9A95D2F7A42AB52A56
:10178000C62AD72AD601C5018827B7FD8395992790
:10179000AA27BB27E82E262D2F70D301C20155E1C1
:1017A000B695A795979587955A95D1F78F709927F4
:1017B000AA27BB278031910508F436C6D301C201A0
:1017C000FCE0B695A79597958795FA95D1F7482FA0
:1017D0004F7031110C94F71B4F3011F40C94D41B43
:1017E000F10104E0409FE00DF11D1124A082B182BF
:1017F000C282D382ECCE4E855F8568897989FEE10D
:101800007695679557954795FA95D1F7842F81700E
:1018100027CF4E855F8568897989EDE17695679553
:1018200057954795EA95D1F7842F817019CF8E850A
:101830009F85A889B9898827B7FD83959927AA2705
:10184000BB270ECF8E859F85A889B9892CE1B695D7
:10185000A795979587952A95D1F7817001CFAE848A
:10186000BF84C888D988D5FEA5C3D601C5010EE1BD
:10187000B695A795979587950A95D1F701E08027AA
:101880008170EECE8E859F85A889B989FCE1B695D9
:10189000A79597958795FA95D1F721E082278170D2
:1018A0004E855F8568897989442777FD439555275B
:1018B000662777278427D4CE44FC10C018A11123B3
:1018C00009F4C5C3D301C2018827907FA077BD70FA
:1018D0008115904FA045B54009F479CEFBEB4F162A
:1018E0005F066F06F7EF7F0671F4FF2061F0F101EC
:1018F000EE5AFE4F0190F081E02D309721F0C101AA
:101900000995811164CE8BE493E00E943108C301F4
:10191000B2010E945B088CE593E00E9431086C895B
:101920007D898E899F890E945B0888E693E00E94EA
:101930003108AA89BB896D917D918D919C910E94FE
:101940005B088DEC93E00E943108EA89FB89808076
:101950009180A280B38075016401F0E6CF220BE98B
:10196000C02A188D112309F41FC3A2E04A2E512C5E
:10197000612C712C2C893D894E895F89240D351D80
:10198000461D571D2C8B3D8B4E8B5F8BF101E65B0B
:10199000FE4F408051806280738034E0430E511CC2
:1019A000611C711C6BE1C1010E942B09AA89BB89D2
:1019B000CD92DD92ED92FC921397F101EC5BFF4F1B
:1019C00080829182A282B382AC88BD88CE88DF8873
:1019D000D101D896AD92BD92CD92DC92DB97F10108
:1019E00044AE55AE66AE77AEF2CDE25AFF4F0C94E0
:1019F000F857F8A1F11172CFD301C20188279927B6
:101A0000A079B1700097A105B14009F067CED3016C
:101A1000C20165FC02C00C94FA1B88279927AF7499
:101A2000BB27892B8A2B8B2B09F458CF252D2F70A0
:101A3000220F530142019924AA24BB242223C1F07E
:101A4000D501C401022E04C0B695A7959795879538
:101A50000A94D2F730E2321B032E04C0880C991C82
:101A6000AA1CBB1C0A94D2F7882A992AAA2ABB2A44
:101A700066FC02C00C94E520F101EC5BFF4F808214
:101A80009182A282B382A3CD452D4F704E3008F0D3
:101A9000C1C3242F30E0F101E855FF4F80819181CF
:101AA000A0E0B0E004C0B695A795979587954A95B4
:101AB000D2F780FF13CFC901880F991F220F331F60
:101AC000220F331F220F331F820F931F820D931D8E
:101AD000FC0144FC02C00C944816E655FF4F0190EF
:101AE000F081E02D309709F4F9CEB301A201B5E001
:101AF0007695679557954795BA95D1F7B42FB770F6
:101B00008B2EB301A2011CE07695679557954795FA
:101B10001A95D1F7042F0F70E02E9301820145E151
:101B200036952795179507954A95D1F70770B30114
:101B3000A201A4E17695679557954795AA95D1F7A7
:101B4000242F2170DC01AE54BF4F6D917C91142D78
:101B50001F70A12E362D3F70C32E48A1C1010995DB
:101B6000882309F4BBCE33CD63015201BB24CC24BE
:101B7000DD24362D3F70132F70FC52C365FC02C06C
:101B80000C9443161062212F207416FD12C0AA0C6B
:101B9000BB1CCC1CDD1CAA0CBB1CCC1CDD1C67FCBC
:101BA00008C0D094C094B094A094A11CB11CC11CD6
:101BB000D11CA986BA86CB86DC86A52DAF70AE3047
:101BC00008F4B8C3FF2009F49ECEEA2FF0E0FDA38D
:101BD000ECA317FF02C00C945918A982312F3F7053
:101BE000B10184E0389F600D711D112479A768A7A9
:101BF000DB014D915D916D917C913F3011F40C941E
:101C0000EF18988D992311F091104C7FDB01CA01D8
:101C10008A0D9B1DAC1DBD1D8E879F87A88BB98B20
:101C2000ECA1FDA1EE0FFF1F8CA09DA0880C991CBC
:101C3000880C991C880C991CCF01880D991D820D68
:101C4000931DDC01A255BF4FAD90BC90BDA2ACA2CC
:101C5000AB2809F443CE222311F40C945117CE0182
:101C600001969BA78AA714FD02C00C944D17AE8461
:101C7000BF84C888D988D301C2010CE0B695A79566
:101C8000979587950A95D1F7082F0F70E02ED3010D
:101C9000C20124E1B695A795979587952A95D1F726
:101CA00021E08227082F0170D301C20146E1B695D9
:101CB000A795979587954A95D1F7282F2170CF0141
:101CC000880D991D820D931DFC01EE54FF4F60811C
:101CD00071818AA49BA448A1C10139AFECA1FDA1E7
:101CE000099539AD882309F4F9CD15FF70CC3F3043
:101CF00011F40C946021AE84BF84C888D988A8A54B
:101D0000B9A5AD92BD92CD92DC92139760CCD30170
:101D1000C201BB2767FCBF6FF88CFF2009F46DC2BE
:101D2000880F991FAA1FBB1F44E050E060E070E0DD
:101D3000840F951FA61FB71F0C891D892E893F8907
:101D4000800F911FA21FB31F18A1112309F46CC2A9
:101D500070FE03C00296A11DB11DF88CFF2009F48E
:101D60008DC742E050E060E070E00C891D892E894B
:101D70003F89400F511F621F731FF10140AF51AFE8
:101D800062AF73AFFE85F5FF69C2AC01BD014E7F46
:101D9000F10144AF55AF66AF77AF4E855F85688977
:101DA00079894F7DEA89FB894083518362837383FC
:101DB00080FFB3C24062408351836283738307CC48
:101DC00038A131118BCD462D4F70842E66FE02C096
:101DD0004068842E65FE03C0582D5064852E67FE32
:101DE00003C0682D6061862E70FE03C0782D70627E
:101DF000872E87FE02C00C94601BD301C20104E150
:101E0000B695A795979587950A95D1F7082F0170F4
:101E1000882D8F7088A7D101E4E08E9FA00DB11DA1
:101E20001124BCABABAB2D913D914D915C912AA798
:101E30003BA74CA75DA78F3011F40C94421CB88CC3
:101E4000BB2059F0992049F02AA53BA54CA55DA5DA
:101E50002C7F2AA73BA74CA75DA7002321F087FE74
:101E600002C00C9467201982282D2071922EB30194
:101E7000A201662777274E875F87688B798B6AA5D3
:101E80007BA58CA59DA56CA37DA38EA39FA340E0FD
:101E90005FE0D52E782D7072C101825B9E4F998FC5
:101EA000888F91E090279C8BD101A45BBF4FB8AF86
:101EB000AFABF101E85BFF4FFEABEDAB1EA74FA64A
:101EC00058AA69AA7AAA4CA05DA06EA07FA0FCA225
:101ED000F02E172F27C087FC1FC71111C1C1A88D75
:101EE000B98DED91FC919E01235F3F4F5901CCA02C
:101EF000EC8804E0A3019201C1010995882309F44B
:101F0000CBC1992009F430C284E090E0A0E0B0E0B9
:101F1000480E591E6A1E7B1E49814F5F498340311E
:101F200008F015C7911003C05D2D541B452F242FB9
:101F300030E08E859F85A889B989042E04C0B695A6
:101F4000A795979587950A94D2F780FFE5CFB901B9
:101F5000660F771F660F771F620D731DF110BBCFE1
:101F600087FEBBCFFEA5F111B8CF88EF840F853077
:101F700010F00C94DB18EA89FB8980819181A281A1
:101F8000B3818F719927AA27BB274197A105B10576
:101F900009F0A3CFB901645E7F4F660F771F660F0C
:101FA000771F620D731D99CFF4E04F2E512C612CD9
:101FB000712CE0CC80E054CB18A111118FCCCE84D1
:101FC000DF84E888F98820E6C22233E9C32A188D25
:101FD000112309F44DC612E0812E912CA12CB12CB5
:101FE0002C893D894E895F89820E931EA41EB51EE1
:101FF000F101E65BFE4F408051806280738038E0E3
:10200000430E511C611C711C63E1C1010E942B092C
:10201000AA89BB89CD92DD92ED92FC921397F101D2
:10202000EC5BFF4FCE84DF84E888F988C082D182E0
:10203000E282F382D101D8968D929D92AD92BC92AC
:10204000DB97F10144AE55AE66AE77AEC0CA162D31
:102050001F7071FC8EC1B301A2015F7066277727E4
:1020600048A359A36AA37BA366FE106164FC1062B7
:1020700067FC0FC068A179A18AA19BA1909580956A
:10208000709561957F4F8F4F9F4F68A379A38AA367
:102090009BA370FCBEC119861A861B861C8665FE32
:1020A00043C6106480E090E0DC0117FD17CC16FDFC
:1020B000F12C14FFDAC504E0802E012F0F7008A761
:1020C000910144E0049F200D311D11243D8B2C8B88
:1020D000F90120813181428153812E873F87488BCE
:1020E000598B0F3009F416C7B88CBB2059F09920D2
:1020F00049F02E853F85488959892C7F2E873F8757
:10210000488B598B15FD63C6A8A0B9A0CAA0DBA057
:10211000A114B104C104D10469F02E853F8548891A
:102120005989A20EB31EC41ED51EA8A2B9A2CAA266
:10213000DBA210684E855F8568897989480F591F31
:102140006A1F7B1F4E875F87688B798B51E08516EE
:1021500011F40C94B718D301C2012CE0B695A795E1
:10216000979587952A95D1F7282F2F70F10104E0D4
:10217000209FE00DF11D112480819181A281B38106
:102180002F3011F40C94761B388D332311F09110FD
:102190008C7F89879A87AB87BC87F101E25BFE4F12
:1021A0000190F081E02DAE01435F5F4F5A01CF2CCB
:1021B000EE24E394082D2E853F8548895989BE0178
:1021C000675F7F4FC1010995882309F4C5C717FFD1
:1021D000FEC91F701F3011F40C948921F10104E035
:1021E000109FE00DF11D112428A139A14AA15BA186
:1021F0002083318342835383EAC9880F991FAA1F22
:10220000BB1F880F991FAA1FBB1F48E050E060E06A
:1022100070E08ECDFF2009F476CB242F30E04BCC3C
:1022200065FC77C51061AFCC70FE15C0F88CFF203F
:1022300009F48DC742E050E060E070E00C891D8930
:102240002E893F89400F511F621F731FF10140AF5C
:1022500051AF62AF73AFFE85F5FF97CD816095CD2D
:10226000992009F47CC084E090E0A0E0B0E0480E42
:10227000591E6A1E7B1EA88DB98DED91FC919E01A1
:10228000235F3F4F5901CCA0EC8804E0A3019201E9
:10229000C1010995811140CE4CA25DA26EA27FA220
:1022A0000D8520E04CA15DA16EA17FA1C1010E941E
:1022B000BE098E859F85A889B98908A404C0B695F2
:1022C000A795979587950A94D2F780FF80C918A59E
:1022D0001F3011F40C94FC22AAA4BBA4CCA4DDA44E
:1022E000ABA9BCA9AD92BD92CD92DC9213976FC9F8
:1022F000AC01BD014E7FF10144AF55AF66AF77AF82
:10230000EA89FB8940815181628173814F7D4083DD
:1023100051836283738380FD4DCD81FF58C9F101E4
:10232000E05BFE4F0190F081E02D69E173E0C101B7
:1023300009954DC94A2F50E05DA34CA3F101E85522
:10234000FF4F4081518160E070E004C07695679551
:1023500057954795AA95D2F740FFC0CA3ACC8CEF63
:102360009FEFAFEFBFEF83CF8CEF9FEFAFEFBFEFEC
:10237000CFCD44FC1068842D8F70F10154E0859F0F
:10238000E00DF11D112440815181628173818F30F4
:1023900009F418C7988D992311F091104C7FD3013F
:1023A000C20137E0B695A795979587953A95D1F7ED
:1023B000282F2F71D301C201E5E0B695A795979517
:1023C0008795EA95D1F783709927AA27BB27823092
:1023D0009105A105B10511F40C94C21B8330910540
:1023E000A105B10511F40C949F1B0197A105B1053E
:1023F00011F40C948D1B5A016B0104C0AA0CBB1C78
:10240000CC1CDD1C2A95D2F7A8A2B9A2CAA2DBA2D5
:102410002BCE65FE8DC488A199A1AAA1BBA18987F5
:102420009A87AB87BC8741CE84599F4FFC010C949F
:10243000F857D10104E0209FA00DB11D11248D910A
:102440009D910D90BC91A02D2F3011F40C943E2441
:10245000F88CFF2011F091108C7FA094B094C09460
:10246000D094A822B922CA22DB22A8C9A094B09491
:10247000C094D094A3C9D10154E0259FA00DB11DF3
:1024800011248D919D910D90BC91A02D2F3011F4B0
:102490000C94FE23F88CFF2011F091108C7FA82A59
:1024A000B92ACA2ADB2A8AC9332309F417CAF101D7
:1024B00034E0239FE00DF11D112480819181A281E0
:1024C000B3812F3011F40C941026F88CFF2011F0FA
:1024D00091108C7F9C01AD012A0D3B1D4C1D5D1D93
:1024E0002C8B3D8B4E8B5F8BBA01A9014827592756
:1024F0006A277B274501560130E8B31A88269926BA
:10250000AA26BB26482159216A217B21442777FD31
:102510004395552766277727842EEE24E3944C892C
:102520005D896E897F89481759076A077B0708F01C
:102530005CC0AC88BD88CE88DF8820E074C03323BF
:1025400009F4CCC9F10104E0209FE00DF11D112434
:1025500040815181628173814CA35DA36EA37FA3EF
:102560002F3011F40C94D225F88CFF2059F09920CB
:1025700049F02CA13DA14EA15FA12C7F2CA33DA32E
:102580004EA35FA34CA15DA16EA17FA14A195B0977
:102590006C097D094C8B5D8B6E8B7F8B8CA19DA113
:1025A000AEA1BFA1482759276A277B278A259B25EB
:1025B000AC25BD25482359236A237B23442777FD77
:1025C000439555276627772748A359A36AA37BA37A
:1025D00088A0EE24E3942CA13DA14EA15FA12A1571
:1025E0003B054C055D0508F0A4CFE12CA2CF3323B9
:1025F00009F474C9D10104E0209FA00DB11D11247C
:102600008D919D910D90BC91A02D2F3011F40C94C3
:102610009325F88CFF2011F091108C7FA826B92605
:10262000CA26DB2620E0D301C2010CE0B695A795AF
:10263000979587950A95D1F7482F4F70111104C0CF
:102640004F3011F40C94FA1D8E859F85A889B989A5
:10265000BF70A114B104C104D10409F074C5B06401
:10266000E110B0628110B061EA89FB8980839183B7
:10267000A283B383222311F40C94E70AADC8332359
:1026800009F42CC9D10194E0299FA00DB11D11249A
:102690008D919D910D90BC91A02D2F3011F40C9433
:1026A0008525F88CFF2011F091108C7FA822B9228B
:1026B000CA22DB2220E0B7CFF10154E0259FE00DD4
:1026C000F11D112440815181628173812F3011F4F9
:1026D0000C94DA23F88CFF2011F091104C7FD60176
:1026E000C501002309F444C2841B950BA60BB70B4C
:1026F000888F998FAA8FBB8F332309F4E6C7EE2406
:10270000E394A416B506C606D70608F447C2888D1A
:10271000998DAA8DBB8D8A259B25AC25BD254A2583
:102720005B256C257D2584239523A623B723882745
:10273000B7FD83959927AA27BB278C8B9D8BAE8BE2
:10274000BF8B8C8884C1F10154E0259FE00DF11D01
:10275000112480819181A281B3812F3011F40C94D6
:10276000CC23F88CFF2011F091108C7F002309F40A
:10277000CDC1AC01BD014A195B096C097D09488FC7
:10278000598F6A8F7B8F332309F49FC7EE24E3941C
:102790008A159B05AC05BD0508F4D1C1288D398D7E
:1027A0004A8D5B8D282739274A275B278A259B2559
:1027B000AC25BD25282339234A235B23222757FD37
:1027C00023953327442755272C8B3D8B4E8B5F8BCE
:1027D0008C88A88CB98CCA8CDB8C21E024CFF101C9
:1027E00044E0249FE00DF11D112480819181A2819C
:1027F000B3812F3011F40C944C24F88CFF2011F08D
:1028000091108C7F002309F49CC1B601A5014F5F94
:102810005F4F6F4F7F4F480F591F6A1F7B1F488FB5
:10282000598F6A8F7B8F332309F44FC7EE24E394CB
:1028300084179507A607B70708F498C1288D398D26
:102840004A8D5B8D282739274A275B272C8B3D8BA8
:102850004E8B5F8B4501560130E8B31A88269926C6
:10286000AA26BB264C895D896E897F89482159211A
:102870006A217B21442777FD4395552766277727D3
:102880004C8B5D8B6E8B7F8B8C88A88CB98CCA8CA3
:10289000DB8C21E0C8CEF10154E0259FE00DF11D55
:1028A000112460817181828193816CA37DA38EA3A9
:1028B0009FA32F3011F40C941A24F88CFF2059F0A8
:1028C000992049F04CA15DA16EA17FA14C7F4CA342
:1028D0005DA36EA37FA3D601C5014CA15DA16EA12E
:1028E0007FA1841B950BA60BB70B8C8B9D8BAE8B9E
:1028F000BF8B332311F40C94D61D8A259B25AC2560
:10290000BD254A255B256C257D2584239523A6239B
:10291000B7238827B7FD83959927AA27BB2788A3C4
:1029200099A3AAA3BBA388A0EE24E3946CA17DA1E4
:102930008EA19FA1A616B706C806D90608F4E4C062
:10294000AC88BD88CE88DF8821E06DCED10104E05F
:10295000209FA00DB11D11248D919D910D90BC91D2
:10296000A02D2F3011F40C94EE22F88CFF2011F0E2
:1029700091108C7FA826B926CA26DB260C94DE0B84
:10298000D101F4E02F9FA00DB11D11248D919D91D7
:102990000D90BC91A02D2F3011F40C940C24F88CC8
:1029A000FF2009F45ECD992009F45BCD8C7F59CDD1
:1029B000F10174E0279FE00DF11D112480819181C8
:1029C000A281B3812F3011F40C943024F88CFF20B5
:1029D00011F091108C7FAC01BD014A0D5B1D6C1D87
:1029E0007D1D488F598F6A8F7B8F332309F46DC605
:1029F000482759276A277B274C8B5D8B6E8B7F8BF3
:102A00004501560150E8B51A88269926AA26BB2604
:102A1000CC88DD88EE88FF88C820D920EA20FB20FA
:102A2000CC24F7FCC394DD24EE24FF24CC8ADD8A79
:102A3000EE8AFF8A8C88EE24E394288D398D4A8DA6
:102A40005B8D281739074A075B0708F0E12CA88C33
:102A5000B98CCA8CDB8C21E0E6CDF10104E0209F2B
:102A6000E00DF11D112440815181628173814CA3DD
:102A70005DA36EA37FA32F3011F40C94E823F88C90
:102A8000FF2059F0992049F04CA15DA16EA17FA1D2
:102A90004C7F4CA35DA36EA37FA36CA17DA18EA1EF
:102AA0009FA16A197B098C099D096C8B7D8B8E8B8C
:102AB0009F8B332311F40C94D61D2CA13DA14EA164
:102AC0005FA162277327842795272A253B254C255C
:102AD0005D256223732384239523662797FD6395E1
:102AE00077278827992768A379A38AA39BA388A01F
:102AF000EE24E3944CA15DA16EA17FA14A155B0574
:102B00006C057D0508F01CCFE12C1ACFB601A5019C
:102B10004095509560957095480F591F6A1F7B1F0F
:102B2000488F598F6A8F7B8F332309F4CEC5EE24EB
:102B3000E394A816B906CA06DB0608F42FCEE12CEA
:102B40002DCEAC01BD014A0D5B1D6C1D7D1D488F56
:102B5000598F6A8F7B8F332309F4B7C5EE24E39432
:102B6000481759076A077B0708F468CEE12C66CE40
:102B70000197A109B109841B950BA60BB70B888F90
:102B8000998FAA8FBB8F332309F49FC5EE24E3945A
:102B90004A155B056C057D0508F4B9CDE12CB7CD70
:102BA00045E0B695A795979587954A95D1F7282F33
:102BB0002370842D8F70D10144E0849FA00DB11D3E
:102BC0001124AD90BD90CD90DC908F3009F46BC591
:102BD000688D662321F0992011F07CEFA72244FE36
:102BE00064C1452D4F70D10184E0489FA00DB11DF7
:102BF00011248D919D910D90BC91A02D4F3009F421
:102C0000C3C7F88DFF2311F091108C7F882309F43E
:102C10007DC0223011F40C94AD22233011F40C94B9
:102C2000BE24213011F40C949022803210F00C94C8
:102C30000025E0E2F0E0E81BF109B601A50104C0BF
:102C40007695679557954795EA95D2F748A359A386
:102C50006AA37BA34170E42E04C0AA0CBB1CCC1C4D
:102C6000DD1C8A95D2F70C94CB0B8824839425CA5B
:102C7000B4E08B2E912CA12CB12CB2C944E050E0D1
:102C800060E070E072C867FE106810640C94C30DB9
:102C9000E455FF4F0190F081E02D309711F40C9432
:102CA0006E0CB301A20105E076956795579547959F
:102CB0000A95D1F7A42FA770AA2E930182014CE0A8
:102CC00036952795179507954A95D1F70F70B3015B
:102CD000A201A4E17695679557954795AA95D1F7F6
:102CE000242F2F70DC01AE54BF4F6D917C91B42D19
:102CF000BF70CB2E162D1F70E12E48A1C101099582
:102D0000882311F40C946E0C0C94E70AE02E0C94BA
:102D1000CB0B10630C94C30D8FA598A997FDDDC84C
:102D20009EA59111DAC821C980E090E0DC01BDC9FF
:102D3000A8A0B9A0CAA0DBA0A986BA86CB86DC86EB
:102D4000D601C50118A219A21AA21BA2AEC94CA293
:102D50005DA26EA27FA24FA458A869A87AA886FE99
:102D600010C018A51F3011F40C943F21ACA0BDA0D9
:102D7000CEA0DFA0ABA9BCA9AD92BD92CD92DC9252
:102D80001397F8A0F110E2C657FC02C00C94E70AB2
:102D900087FE02C00C94E70AF10184AD95ADA6ADA3
:102DA000B7AD80FD02C00C94BF238E7F84AF95AF7A
:102DB000A6AFB7AFEA89FB8980819181A281B381F7
:102DC000806280839183A283B3830C94E70A4E854B
:102DD0005F8568897989480F591F6A1F7B1F488F53
:102DE000598F6A8F7B8FF101E25BFE4F0190F0817A
:102DF000E02DBE01635F7F4F5B01CF2CE12C082DDE
:102E0000288D398D4A8D5B8DBE01675F7F4FC10173
:102E10000995882309F486C671E0871611F40C948D
:102E20009E2089859A85AB85BC85B301A201ECE023
:102E30007695679557954795EA95D1F7242F2F708A
:102E40002F3011F40C94A820F10104E0209FE00D34
:102E5000F11D112480839183A283B38328A139A11A
:102E60004AA15BA1211531054105510511F40C94CE
:102E7000E70A8E859F85A889B989820F931FA41FB1
:102E8000B51F18A51F3009F433CAEC89FD8980836A
:102E90009183A283B3830C94E70A5A016B010C94CB
:102EA0003B0E1BA61AA60C94330EB301A201F7E049
:102EB0007695679557954795FA95D1F74F712230DA
:102EC00011F40C94C420233011F40C948020213090
:102ED00011F40C947020442309F418CF60E270E0E0
:102EE000641B7109D601C50104C0B695A7959795D5
:102EF00087956A95D2F788A399A3AAA3BBA38170EB
:102F0000E82E04C0AA0CBB1CCC1CDD1C4A95D2F7D1
:102F10000C94CB0BF88DFF2309F4F6C3F2E0AF2E2F
:102F2000B12CC12CD12CACA2BDA2CEA2DFA24E8569
:102F30005F8568897989ACA0BDA0CEA0DFA04A0DCD
:102F40005B1D6C1D7D1D4E875F87688B798BCCC8A0
:102F5000D301C20180769927AA27BB27892B8A2B08
:102F60008B2B09F0A5C4D301C20134E1B695A79516
:102F7000979587953A95D1F78F709927AA27BB2700
:102F800070FE6BC60097A105B10511F40C941B23CC
:102F90000497A105B10511F00C946E0C862D8F706D
:102FA000F10134E0839FE00DF11D11244081518136
:102FB000628173814E875F87688B798B8F3011F4C4
:102FC0000C947527188D112359F0992049F02E85FE
:102FD0003F85488959892C7F2E873F87488B598B9D
:102FE000A101425B5E4F5D8B4C8BBE01635F7F4FE7
:102FF00079A368A3DA01ED91FC915B01CF2CE12C60
:1030000001E02E853F8548895989BE016F5F7F4F5A
:10301000C1010995882309F49FC01981242D2F70BF
:10302000F101B4E02B9FE00DF11D1124808191810D
:10303000A281B3812F3011F40C946029F88DFF2305
:1030400011F091108C7F8983AC89BD89ED91FC9141
:10305000A8A0B9A0CF2CEE24E39401E02E853F85F3
:1030600048895989BE016F5F7F4FC1010995882347
:1030700009F472C0812F90E0A0E0B0E0B301A2019A
:103080000CE076956795579547950A95D1F7242FCB
:103090002F702F3011F40C944E28F10104E0209F82
:1030A000E00DF11D112480839183A283B3830C94DE
:1030B000E70AACA1BDA1AA0FBB1F8CA19DA1880FDF
:1030C000991F880F991F880F991FA80FB91FA20D6C
:1030D000B31DFD01E055FF4F0190F081E02D3097C9
:1030E00011F40C946E0CB301A2011CE07695679567
:1030F000579547951A95D1F7042F0F70B301A20188
:1031000084E076956795579547958A95D1F7242F52
:103110002F70B301A20194E1769567955795479575
:103120009A95D1F74170AE54BF4F6D917C91542D5B
:103130005F70C52EE32EC1010995882311F40C940C
:103140006E0C0C94E70AD7FE8BCAB06889CA44E0BB
:1031500050E060E070E072C80D8520E04E855F852C
:1031600068897989C1010E94BE090C94E70A198611
:103170001A861B861C86D301C2013CE0B695A79532
:10318000979587953A95D1F7282F2F70F10164E034
:10319000269FE00DF11D112480819181A281B381D0
:1031A0002F3009F4BEC7E88DEE2311F091108C7F0B
:1031B00089870C94CD104D3009F0A7C46DA97EA964
:1031C0000C946D0F888D882309F4A7C482E090E0E9
:1031D000A0E0B0E0480F591F6A1F7B1FDBC8B88D05
:1031E000BB2309F4AAC482E090E0A0E0B0E08E879F
:1031F0009F87A88BB98B8E859F85A889B989480F31
:10320000591F6A1F7B1F0C94010EB301A20124E019
:1032100076956795579547952A95D1F74F7055271D
:10322000662777274031510510F00C946E0CFA0197
:10323000E458FF4F0C94F85780389105A105B1056B
:1032400011F00C946E0C242D2F70F101B4E02B9F23
:10325000E00DF11D112460817181828193812F30F5
:1032600011F40C94712A188D11110C94592AA52D62
:10327000AF70F10114E0A19FE00DF11D1124008158
:10328000118122813381AF3011F40C942A2C630117
:103290005201F5E1D694C794B794A794FA95D1F763
:1032A00053E0A522BB24CC24DD24A2E0AA16B1045D
:1032B000C104D10411F40C94882AB3E0AB16B10414
:1032C000C104D10411F40C94FB29AA94AB28AC28B6
:1032D000AD2811F40C94D22945FC02C00C94622B49
:1032E000BC018827992777FF02C08F6F9F6F46FC2C
:1032F00002C00C945C2B4427552737FF02C04F6F48
:103300005F6F0E948C578B019C01D301C2014CE07E
:10331000B695A795979587954A95D1F78F70F10146
:1033200044E0849FE00DF11D1124C080D180E28033
:10333000F3808F3011F40C943F2C688D662321F0BC
:10334000992011F07CEFC722C701B601600F711FF1
:10335000821F931F4B015C018C249D24AE24BF244B
:1033600030580C251D252E253F2580229122A22292
:10337000B3228824B7FC83949924AA24BB24C82CA4
:10338000730100271127EC8AFD8A0E8B1F8B2C8975
:103390002F702F3011F40C948429F10104E0209F48
:1033A000E00DF11D11246083718382839383CC200F
:1033B00011F40C94E70AEA89FB8980819181A2814A
:1033C000B381B86080839183A283B3830C94E70AAE
:1033D000F101E65BFE4FC080D180E280F380FCE02B
:1033E000CF0ED11CE11CF11C67E1C1010E942B0929
:1033F00087E990E0A0E0B0E0EA89FB8980839183CF
:10340000A283B383F101EC5BFF4F0E851F852889F2
:10341000398900831183228333838C899D89AE8906
:10342000BF890496A11DB11DF10180AF91AFA2AF7C
:10343000B3AFC4AED5AEE6AEF7AE0C94E70AD30197
:10344000C20188279F70AA27BB27892B8A2B8B2B29
:1034500011F00C946E0C842D8F70F101B4E08B9FF1
:10346000E00DF11D112400811181228133818F3003
:1034700011F40C941629F88CF1100C94BA25462DF1
:103480004F70F101B4E04B9FE00DF11D11248081DC
:103490009181A281B3814F3011F40C94CC2CB301F3
:1034A000A201E5E17695679557954795EA95D1F79D
:1034B000437055276627772742305105610571050E
:1034C00011F40C949527433051056105710511F4F1
:1034D0000C949527413051056105710511F40C9448
:1034E0002429AC01BD01400F511F621F731F6A01E7
:1034F0007B01C826D926EA26FB263058082719273B
:103500002A273B27C022D122E222F322CC24F7FC37
:10351000C394DD24EE24FF24CC2041F0AC01BD0196
:10352000770F440B542FBA01CC24C394D301C201AA
:103530001CE0B695A795979587951A95D1F78F704A
:103540008F3011F40C94A228F10104E0809FE00D6B
:10355000F11D1124408351836283738328CFD301EB
:10356000C20166FC02C00C94D124807F9F70BF70A2
:1035700080319F40AF46B14011F00C946E0C242D69
:103580002F70F10104E0209FE00DF11D11248081D6
:103590009181A281B3812F3011F40C94DF2CF88C2F
:1035A000FF2011F091108C7F30E040E050E060E0AF
:1035B00070E8E32F07C0EF5F7695679557954795BD
:1035C000E03251F08A019B01082319232A233B236F
:1035D000012B022B032B79F33E2F8E2F90E0A0E0DE
:1035E000B0E0B301A201FCE0769567955795479549
:1035F000FA95D1F7242F2F702F3009F04ECD8E7F02
:10360000F10184AF95AFA6AFB7AF8E859F85A8892E
:10361000B9898F7DEA89FB8980839183A283B383F3
:1036200030FDCECB31FD02C00C94E70A0C948F1113
:10363000D301C2019F70AF7BBB270097AF40B1059C
:1036400011F40C94B025D301C201807FA07BBB276D
:103650008115904FA042B10511F00C946E0C842D91
:103660008F70F10124E0829FE00DF11D1124A080F4
:10367000B180C280D3808F3011F40C943B28188D18
:10368000112321F0992011F02CEFA22266FC02C038
:103690000C94BE28F101EC5BFF4FA082B182C28284
:1036A000D3820C94E70A588D552309F468C282E04E
:1036B00090E0A0E0B0E0A80EB91ECA1EDB1E88CACA
:1036C00011110C946E0C0C94FD0EA88CB98CCA8C44
:1036D000DB8CD301C2012CE0B695A7959795879511
:1036E0002A95D1F7482F4F700C94EC0B288D22238C
:1036F00009F457C242E050E060E070E0840F951F8B
:10370000A61FB71F0C94C41024E030E040E050E046
:103710002CA33DA34EA35FA30ACC222309F44BC2E2
:10372000DB01CA0104C0B695A795979587952A95A0
:10373000D2F788A399A3AAA3BBA30C9434105A016F
:103740006B01222309F43DC2022E04C0D694C79413
:10375000B794A7940A94D2F780E2821B282FDB014A
:10376000CA0104C0880F991FAA1FBB1F2A95D2F750
:103770008A299B29AC29BD2988A399A3AAA3BBA305
:103780000C943410222309F457C25A016B0104C06F
:10379000D594C794B794A7942A95D2F7A8A2B9A2B2
:1037A000CAA2DBA20C943410D601C5018E7FF101B0
:1037B00084AF95AFA6AFB7AFEA89FB8980819181CD
:1037C000A281B3818F7D80839183A283B383A1FE85
:1037D00002C00C9415258F7DEA89FB898083918333
:1037E000A283B383A0FC02C00C94E70AE9CA21E0DB
:1037F0000C941E1366FEFFC30CE0B695A795979533
:1038000087950A95D1F7282F2F70F101B4E02B9FEF
:10381000E00DF11D112480819181A281B3812F30AF
:1038200011F40C945A24188D112311F091108C7FEF
:10383000AC01BD0166277727D301C20188279927EC
:10384000AF70BB273CE0880F991FAA1FBB1F3A959A
:10385000D1F73FE0532266247724320155244424D3
:1038600084299529A629B729842B952BA62BB72B1C
:103870002F3011F40C94C50E80839183A283B383FF
:103880000C94E70AB88DBB2309F4E2C182E090E012
:10389000A0E0B0E0AAA4BBA4CCA4DDA4A80EB91EED
:1038A000CA1EDB1EAAA6BBA6CCA6DDA60C941F0FC3
:1038B00019821A821B821C821D821E821F82188618
:1038C000162D1F7066FED4C36301520144E0D694E6
:1038D000C794B794A7944A95D1F7A6019501207F84
:1038E000332744275527D301C2018F709927AA2770
:1038F000BB27282B392B4A2B5B2B2E873F87488BE6
:10390000598BD301C20104E1B695A7959795879588
:103910000A95D1F7282F2170D301C20135E0B69561
:10392000A795979587953A95D1F7817046FC96C3F0
:10393000811101C0106821118FC367FC0FC04E8533
:103940005F856889798970956095509541955F4F3D
:103950006F4F7F4F4E875F87688B798B70FC6FC38B
:1039600019861A861B861C8665FEF7C4106840E01F
:1039700050E0BA0117FF02C00C946E0C912F9F709B
:1039800098A7D101D92EE4E09E9FA00DB11D11246E
:10399000BDA3ACA38D919D910D90BC91A02D88A34A
:1039A00099A3AAA3BBA3BD2DBF3009F479C5B88CD8
:1039B000BB2059F0992049F088A199A1AAA1BBA1E7
:1039C0008C7F88A399A3AAA3BBA3912F9073D92E10
:1039D000A0E19A1709F4FFC5A91708F0FAC5B0E2EB
:1039E0009B1709F4F3C5E0E39E13EEC5A8E08A2E09
:1039F00016FDDBC4AE84BF84C888D988A114B10485
:103A0000C104D10469F088A199A1AAA1BBA1A80E03
:103A1000B91ECA1EDB1EAE86BF86C88AD98A106848
:103A200091E0891609F48BC7E2E0AE2ED301C20102
:103A3000FCE0B695A79597958795FA95D1F7282F2D
:103A40002F70F1018A1411F40C94612584E0289FF1
:103A5000E00DF11D112480819181A281B3812F306D
:103A600011F40C94A125F88DF11150C789839A8324
:103A7000AB83BC832F5FF10184E0289FE00DF11D33
:103A8000112480819181A281B3812F3011F40C9493
:103A9000482B8D839E83AF83B88748A059A06AA026
:103AA0007BA0440E551E661E771EF101E25BFE4FA1
:103AB0000190F081E02D9E01235F3F4F5901CF2CF3
:103AC000EE24E394082DA3019201BE016F5F7F4FA6
:103AD000C1010995882309F4FBC617FD02C00C94A7
:103AE000E70A1F701F3009F4EBC3F10104E0109FD7
:103AF000E00DF11D11242E853F85488959892083C9
:103B00003183428353830C94E70A4E3011F00C94B6
:103B10006D0F6FA978AD0C946D0F84E090E0A0E07C
:103B2000B0E058CB0D8520E0488D598D6A8D7B8D96
:103B3000C1010E94BE090C94E70A84E090E0A0E075
:103B4000B0E08E879F87A88BB98B55CBF101EC5BDA
:103B5000FF4F1081E180F2800381612F6F71C101FD
:103B60000E942B09AA89BB891C931196EC9211978C
:103B70001296FC92129713960C930C94E70A84E029
:103B800090E0A0E0B0E097CDE88DEE2309F4E0C32B
:103B900042E050E060E070E0840F951FA61FB71F61
:103BA00030C844E050E060E070E0A8CDAC88BD884B
:103BB000CE88DF888ECD18A219A21AA21BA20C945F
:103BC0003410D694C794B794A794A8A2B9A2CAA255
:103BD000DBA22E853F854889598955FD02C00C948A
:103BE0003410B601A501706848A359A36AA37BA34A
:103BF0000C943410222311F40C942413F101EC5B87
:103C0000FF4F1081E180F2800381612F6F71C1014C
:103C10000E942B09AA89BB891C931196EC921197DB
:103C20001296FC92129713960C93F101A4AEB5AEC6
:103C3000C6AED7AE0C94E70ADB01CA01BB0F880BF6
:103C4000982FDC0188A399A3AAA3BBA30C943410DA
:103C500084E090E0A0E0B0E01DCE8031910510F04E
:103C60000C946E0CFC01E457FF4F0C94F857A12CF8
:103C7000B12CC12CD12C18A218A61AA6812C930104
:103C8000442755272C8B3D8B4E8B5F8BB301A201B4
:103C9000ECE07695679557954795EA95D1F74CA353
:103CA0005DA36EA37FA3852D8F70F10154E0859FE6
:103CB000E00DF11D112420813181428153818F302B
:103CC00011F40C94AA26188D1111DFC6842D8F7063
:103CD000F10174E0879FE00DF11D1124E080F18077
:103CE000028113818F3011F40C94662B66FEE4C6BA
:103CF000CA01B901A80197010E94BE57E8A0F8A423
:103D00000AA5182D0E943558122FB32EA42E952ED9
:103D1000862E78A388A79AA700E20E941958288FB8
:103D2000398F4A8F5B8F6C8F7D8F8E8F9F8FC88C62
:103D3000D98CEA8CFB8C812F9B2DAA2DB92D2CA11F
:103D40002F702F3011F40C942427F10104E0209FF0
:103D5000E00DF11D112480839183A283B3838C89AC
:103D60008F708F3011F40C940827F10104E0809FCC
:103D7000E00DF11D1124C082D182E282F38264FC45
:103D800002C00C94E70AAA89BB89CD90DD90ED9022
:103D9000FC90BFE3FB22212F3B2D4A2D592D682D8E
:103DA00078A188A59AA5A0E00E943E5811F46894D5
:103DB000F6F8088D198D2A8D3B8D37FF02C00C94C3
:103DC000A929AA89BB89CD92DD92ED92FC92139725
:103DD0000C94E70AD301C2011CE0B695A79597950C
:103DE00087951A95D1F78F70F10114E0819FE00D4E
:103DF000F11D1124A080B180C280D380A8A2B9A2F5
:103E0000CAA2DBA28F3011F40C946E29188D111107
:103E1000DAC7252D2F70F101A4E02A9FE00DF11DD6
:103E2000112460817181828193812F3011F40C946F
:103E30007027A42DAF70F10104E0A09FE00DF11DEB
:103E400011242081318142815381AF3011F40C94CF
:103E5000BE2B0E948C574B015C0108A119A12AA11D
:103E60003BA1800E911EA21EB31E862D8F708F3037
:103E700009F48EC7F10104E0809FE00DF11D1124CB
:103E800080829182A282B38264FC02C00C94E70A11
:103E9000EA89FB8980819181A281B381BF738114FA
:103EA0009104A104B10409F4B1C7B7FCB068EA8970
:103EB000FB89E2CCD301C2018827907FAA27BB27C8
:103EC000892B8A2B8B2B11F00C946E0C252D2F70C7
:103ED000F10114E0219FE00DF11D11246081718139
:103EE000828193812F3011F40C94692718A219A2B2
:103EF0001AA21BA2188D112309F49BCF91106C7F7D
:103F0000A42DAF70F101B4E0AB9FE00DF11D1124C1
:103F10002081318142815381AF3011F40C94CE2B3A
:103F2000992009F496CF2C7F94CF63015201FCE0D5
:103F3000D694C794B794A794FA95D1F7ACA2BDA232
:103F4000CEA2DFA28CA18F70F10104E0809FE00D72
:103F5000F11D1124A080B180C280D380A8A2B9A293
:103F6000CAA2DBA28F3011F40C94EE27F88CF1106A
:103F7000C0C6A301662777274C8B5D8B6E8B7F8B2A
:103F8000842F8F70F10154E0859FE00DF11D112405
:103F900040815181628173818F3011F40C94D12C56
:103FA0005A016B019A01A60160E070E080E090E0A8
:103FB00000E20E94FE5759016A0108A119A12AA135
:103FC0003BA17801890120E030E0A901EAAEFBAE17
:103FD0000CAF1DAF2EAF3FAF21964FAF219722966A
:103FE0005FAF2297AE28BF28C02AD12A68A378A73E
:103FF0008AA7892E58CE04E0B695A7959795879500
:104000000A95D1F78827907FAA27BB27B301A20181
:104010005F7066277727842B952BA62BB72BB301D0
:10402000A2011CE076956795579547951A95D1F7AB
:10403000242F2F702F3009F030C80C94C50E65FE68
:1040400090C16E857F858889998969877A878B87F2
:104050009C87AB01BC018ECC10646FCC882309F423
:104060000CC110612111F8CF106321E0282763CC27
:10407000D301C20188279F70AA27BB27892B8A2BCF
:104080008B2B09F01068842D8F70F10134E0839F31
:10409000E00DF11D112440815181628173814E87B1
:1040A0005F87688B798B8F3009F41BC4B88CBB2079
:1040B00009F427CC992009F424CC2E853F85488922
:1040C00059892C7F2E873F87488B598B1ACC57FCF8
:1040D00002C00C94330F31E0312738A30C94330F16
:1040E000411158C2D601C5018827B7FD839599278C
:1040F000AA27BB27E82EA12CB12C65010C94CB0B71
:104100004111E3C19A2D9170E92ED694C794B794CA
:10411000A794002311F40C94CB0B6894D7F80C945B
:10412000CB0B788D772309F43BC142E050E060E08F
:1041300070E0840F951FA61FB71F35C8898590E0D2
:10414000A0E0B0E089879A87AB87BC870C941517ED
:10415000AC01BD014E7FF10144AF55AF66AF77AF03
:10416000EA89FB8940815181628173814F7D40835F
:1041700051836283738380FF03C140624083518314
:10418000628373830C942E17442309F4BAC0642FFE
:1041900070E0FB013197D601C50104C0B695A79523
:1041A00097958795EA95D2F788A399A3AAA3BBA36D
:1041B0008170E82ED7FC11C504C0D694C794B7947B
:1041C000A7944A95D2F70C94CB0B2301662477244D
:1041D000FF2091F140FCCCC541FE12C04E855F85A9
:1041E000688979895527D501C4018827AA27BB2763
:1041F000482B592B6A2B7B2B4E875F87688B798BDB
:1042000042FE1AC06E857F858889998988276E87C6
:104210007F87888B998BD501C40188279927BB2775
:10422000CE84DF84E888F988C82AD92AEA2AFB2ABA
:10423000CE86DF86E88AF98A43FE12C00E851F8586
:1042400028893989332775016401CC24DD24EE24C3
:104250000C291D292E293F290E871F87288B398B72
:104260002E853F8548895989AA89BB892D933D931D
:104270004D935C9313970C94E70A1062F3CE8CA1D4
:104280009DA1AEA1BFA18E7FF10184AF95AFA6AF76
:10429000B7AFEA89FB8980819181A281B3818F7D4B
:1042A00080839183A283B383FCA1F0FF57C2806215
:1042B000EA89FB8980839183A283B3830C94C1161E
:1042C0008E859F85A889B9898E7FF10184AF95AFCE
:1042D000A6AFB7AFEA89FB8980819181A281B381C2
:1042E0008F7D80839183A283B383FE85F0FD07C019
:1042F000FE85F1FD02C00C94E70A0C948F118062D8
:10430000D6CDD7FC85C4E12CA12CB12C65010C9431
:10431000CB0B88A199A1AAA1BBA18E7FF10184AF8B
:1043200095AFA6AFB7AFEA89FB8980819181A28161
:10433000B3818F7D80839183A283B383F8A1F0FD45
:10434000DECFF8A1F1FD02C00C94E70A0C948F11A6
:1043500044E050E060E070E01FCC40E050E0BA0183
:1043600009CB8E859F85A889B98989879A87AB876C
:10437000BC87AC01BD011E861F86188A198AFACA3D
:1043800081FD02C00C942E17F101E05BFE4F0190FD
:10439000F081E02D69E173E0C10109950C942E17BD
:1043A00044E050E060E070E0C4CE08A119A12AA169
:1043B0003BA1040F151F261F371F088F198F2A8F47
:1043C0003B8FF101E25BFE4F0190F081E02D9E01F9
:1043D000235F3F4F5901CF2CE12C082D288D398DBB
:1043E0004A8D5B8DBE016F5F7F4FC10109958823A8
:1043F00009F498CB31E0831609F448C412E0811621
:1044000009F422C689819A81AB81BC81B301A201E2
:10441000ECE07695679557954795EA95D1F7242F67
:104420002F702F3009F4F0C5F10104E0209FE00D5A
:10443000F11D112480839183A283B3838D819E819A
:10444000AF81B8852F5F2F3009F438C4F10104E043
:10445000209FE00DF11D112480839183A283B383FB
:104460002E853F854889598921153105410551051A
:1044700011F40C94E70A48A059A06AA07BA0420E50
:10448000531E641E751E18A51F3009F422C6ACA168
:10449000BDA14D925D926D927C9213970C94E70AA8
:1044A000E88DEE2309F4B7C282E090E0A0E0B0E02E
:1044B000A8A0B9A0CAA0DBA0A80EB91ECA1EDB1E08
:1044C000A8A2B9A2CAA2DBA272CA642F70E0FB0143
:1044D0003197D601C50104C0B695A79597958795E4
:1044E000EA95D2F788A399A3AAA3BBA38170E82E6B
:1044F000D601C50104C0B695A795979587954A95AD
:10450000D2F720E2241B04C0AA0CBB1CCC1CDD1C6F
:104510002A95D2F7A82AB92ACA2ADB2A0C94CB0BEF
:10452000803208F03AC29FEF980FB601A50104C08F
:1045300076956795579547959A95D2F748A359A3CD
:104540006AA37BA34170E42E04C0D694C794B794A9
:10455000A7948A95D2F70C94CB0B803208F0D1CE79
:104560009FEF980FB601A50104C076956795579502
:1045700047959A95D2F748A359A36AA37BA34170A4
:10458000E42E04C0D594C794B794A7948A95D2F723
:104590000C94CB0B2FEF240FC601B50104C09695E8
:1045A0008795779567952A95D2F768A379A38AA30B
:1045B0009BA36170E62E04C0D694C794B794A794C9
:1045C0004A95D2F70C94CB0B812C12CA8824839481
:1045D0000FCA9111F9CFB2E08B2E0ACAF88CFF20D6
:1045E00009F44EC242E050E060E070E0840F951F95
:1045F000A61FB71F0C94B5148AA59BA5ACA5BDA595
:104600008E7FF10184AF95AFA6AFB7AFEA89FB8982
:1046100080819181A281B3818F7D80839183A283E8
:10462000B383FAA5F0FD6BCEFAA5F1FD02C00C94A0
:10463000E70A0C948F11862D8F70F10174E0879F2B
:10464000E00DF11D1124A080B180C280D380AE8620
:10465000BF86C88AD98A8F3009F403C3188D112305
:1046600059F0992049F02E853F85488959892C7F3A
:104670002E873F87488B598BA101425B5E4F5D8B34
:104680004C8BBE01635F7F4F79A368A3DA01ED9184
:10469000FC915B01CF2CE12C04E02E853F854889FD
:1046A0005989BE01675F7F4FC1010995882311F4C5
:1046B0000C94AC18A984BA84CB84DC84ACA2BDA2CF
:1046C000CEA2DFA2242D2F70F10104E0209FE00D87
:1046D000F11D112480819181A281B3812F3009F4D1
:1046E00015C5188D112311F091108C7F89879A8739
:1046F000AB87BC87AC89BD89ED91FC91A8A0B9A01E
:10470000CF2CEE24E39404E02E853F854889598917
:10471000BE01675F7F4FC1010995882311F40C9496
:10472000AC18D301C2012CE0B695A7959795879553
:104730002A95D1F78F708F3009F487C6F10104E014
:10474000809FE00DF11D11242CA13DA14EA15FA180
:1047500020833183428353830C94E70AFCA1F1FD4B
:1047600002C00C94C116F101E05BFE4F0190F08194
:10477000E02D69E173E0C10109950C94C116EA8945
:10478000FB8980819181A281B3818F7D8083918318
:10479000A283B3830C94E70AF88CFF2009F457C175
:1047A00042E050E060E070E0840F951FA61FB71F45
:1047B0000C94B113F88CFF2009F498C182E090E0CA
:1047C000A0E0B0E0480F591F6A1F7B1F0C946A13CA
:1047D000F88CFF2009F440C182E090E0A0E0B0E056
:1047E0004CA15DA16EA17FA1480F591F6A1F7B1FBD
:1047F0004CA35DA36EA37FA30C943F15F88CFF2000
:1048000009F479C142E050E060E070E0840F951F48
:10481000A61FB71F0C944A12F88CFF2009F426C17A
:1048200042E050E060E070E0840F951FA61FB71FC4
:104830000C94CF14F88CFF2009F462C182E090E060
:10484000A0E0B0E04CA15DA16EA17FA1480F591F6F
:104850006A1F7B1F4CA35DA36EA37FA30C945D1402
:10486000F88CFF2009F4FDC042E050E060E070E009
:10487000840F951FA61FB71F0C94E614F88CFF2019
:1048800009F4F9C042E050E060E070E0840F951F49
:10489000A61FB71F0C942812F88CFF2009F4C0C083
:1048A00042E050E060E070E0840F951FA61FB71F44
:1048B0000C94FD13F88CFF2009F48AC142E050E00B
:1048C00060E070E0840F951FA61FB71F0C94131CA7
:1048D0000D8520E0B301A201C1010E94BE090C9424
:1048E000E70A588D552309F4A9C182E090E0A0E0C1
:1048F000B0E0AE84BF84C888D988A80EB91ECA1E8D
:10490000DB1EAE86BF86C88AD98AD0CB91108C7F39
:1049100089839A83AB83BC832F5FF10194E0299F45
:10492000E00DF11D112480819181A281B3812F308E
:1049300009F4DAC6992009F4ACC88C7FAAC8D3015F
:10494000C2013CE0B695A795979587953A95D1F722
:10495000282F2F70F101A4E02A9FE00DF11D1124F2
:1049600080819181A281B3812F3009F46CC1F88DCF
:10497000FF2311F091108C7F89838FC8282F2F710E
:1049800009F07EC2D601C5018827B7FD8395992716
:10499000AA27BB27E82E0C94CB0B803209F0B3CCAE
:1049A000A1CB8827BF7081159F4FAF42B14011F056
:1049B0000C946E0CD301C20180739927AA27BB27E0
:1049C000C097A105B10509F403C7242D2F70F1018B
:1049D00004E0209FE00DF11D112480819181A281CE
:1049E000B3812F3009F4E8C6F88CFF2011F40C9441
:1049F000C50E992011F40C94C50E8C7F0C94C50E35
:104A0000803209F080CC5A2D5170E52EA12CB12CAA
:104A100065010C94CB0B84E090E0A0E0B0E048CDC1
:104A200044E050E060E070E03FCFF101E05BFE4F1A
:104A30000190F081E02D69E173E0C1010995EA89F7
:104A4000FB8980819181A281B3810C94EB1B44E0AE
:104A500050E060E070E0A8CE84E090E0A0E0B0E03C
:104A6000BFCE44E050E060E070E002CF44E050E0B0
:104A700060E070E0D9CE44E050E060E070E006CF46
:104A800044E050E060E070E0B1CD91102C7F842DC7
:104A90008F70F10164E0869FE00DF11D1124E0802C
:104AA000F180028113818F3009F461C7992009F4E4
:104AB0001DC97CEFE7221AC9C801B7010E94CD5772
:104AC0001DC904E0209FE00DF11D1124808191811A
:104AD000A281B3812F3009F4D9C4388D332311F06A
:104AE00091108C7F9A8389830C944D1D84E090E013
:104AF000A0E0B0E067CE44E050E060E070E086CE39
:104B000084E090E0A0E0B0E09DCEF88CFF2009F4B6
:104B10001CC142E050E060E070E0840F951FA61FCA
:104B2000B71F0C945113F88CFF2009F44DC242E0DA
:104B300050E060E070E0840F951FA61FB71F0C9433
:104B40000913E88DEE2309F4FAC002E0402E512C3F
:104B5000612C712C840D951DA61DB71D0C94331D61
:104B600066FEDEC1F101EC5BFF4F80819181A28185
:104B7000B38155CA91100C7F462D4F70F101A4E00E
:104B80004A9FE00DF11D112480819181A281B381A2
:104B90004F3009F4DEC6992011F40C944F1A8C7F23
:104BA0000C944F1AF88CFF2009F4B5C182E090E014
:104BB000A0E0B0E02CA13DA14EA15FA1280F391FBC
:104BC0004A1F5B1F2CA33DA34EA35FA30C94B412FA
:104BD00044E050E060E070E075CE04C0D694C79425
:104BE000B794A7944A95D2F780E290E0861B970B82
:104BF0004FEF5FEFBA0104C0440F551F661F771FC8
:104C00008A95D2F7A42AB52AC62AD72A0C94CB0BA8
:104C1000EE24E394AA24AA94BA2C65010C94CB0B3D
:104C2000F88CFF2009F4D5C142E050E060E070E06C
:104C3000840F951FA61FB71F0C94651284E090E0A7
:104C4000A0E0B0E056CEE88DEE2309F46BC222E07E
:104C5000422E512C612C712C840D951DA61DB71D63
:104C600086CE188D112309F4FCC182E090E0A0E00B
:104C7000B0E02E853F8548895989280F391F4A1F82
:104C80005B1F2E873F87488B598BE8CC2981822F69
:104C900090E0A0E0B0E027FF03C09F6FAF6FBF6F51
:104CA000B301A201FCE07695679557954795FA9573
:104CB000D1F7242F2F702F3009F0C8CBAC01BD01E4
:104CC0004E7FF10144AF55AF66AF77AFEA89FB89FC
:104CD00040815181628173814F7D40835183628322
:104CE000738380FFC5C440624083518362837383B2
:104CF000B7CB992049F008A119A12AA13BA10C7FAB
:104D000008A319A32AA33BA39301442755272C8B5F
:104D10003D8B4E8B5F8B822F8F70F10134E0839F30
:104D2000E00DF11D112440815181628173818F302A
:104D300009F452C6992009F433C94C7F31C9F4E013
:104D40004F2E512C612C712C05CF44E050E060E0D7
:104D500070E0E3CEF88CFF2009F49BC182E090E084
:104D6000A0E0B0E0280F391F4A1F5B1F0C94631EA0
:104D7000682D6F71C1010E942B092E853F854889DE
:104D80005989222728292E873F87488B598B24CA87
:104D9000D501C4018E7FF10184AF95AFA6AFB7AF47
:104DA0008E859F85A889B9898F7DEA89FB89808353
:104DB0009183A283B38380FE73C2806280839183D8
:104DC000A283B38361C8992049F008A119A12AA13F
:104DD0003BA10C7F08A319A32AA33BA3252D2F7069
:104DE000F10194E0299FE00DF11D11246081718192
:104DF000828193812F3009F081C802E010E020E029
:104E000030E0600F711F821F931F74C8B0644FC8D9
:104E1000D701C6018E7FF10184AF95AFA6AFB7AFC2
:104E2000EA89FB8980819181A281B3818F7D808312
:104E30009183A283B383C0FE90C2806280839183FA
:104E4000A283B3830C94BF1EAC01BD014E7FF10160
:104E500044AF55AF66AF77AF4E855F856889798976
:104E60004F7DEA89FB89408351836283738310FFFE
:104E700084C2406240835183628373830C94AF1E6B
:104E8000622F70E0AB0141505109D601C50104C049
:104E9000B695A795979587954A95D2F7582F517053
:104EA000E52ED601C50104C0B695A79597958795BF
:104EB0002A95D2F720E2261B04C0AA0CBB1CCC1CEE
:104EC000DD1C2A95D2F7A82AB92ACA2ADB2A0C9413
:104ED000CB0BF88C18A219A21AA21BA2F1108DCF2D
:104EE00004E010E020E030E08CCF188D112309F4AD
:104EF0002BC282E090E0A0E0B0E02E853F8548899B
:104F00005989280F391F4A1F5B1F2E873F87488BFF
:104F1000598B0C94E21784E090E0A0E0B0E04ACE18
:104F20008E859F85A889B9897AC84C015D01880C56
:104F3000991CAA1CBB1CB901A80170584C8B5D8B35
:104F40006E8B7F8B75016401C826D926EA26FB2665
:104F5000482759276A277B27C422D522E622F72231
:104F6000CC24F7FCC394DD24EE24FF24CC2031F0C4
:104F70004C015D01BB0C8808982C5401B501A401BB
:104F8000400F511F621F731FDB01CA01882599253D
:104F9000AA25BB250C891D892E893F89082519253D
:104FA0002A253B2580239123A223B323B7FD02C0EA
:104FB0000C94961AB501A401770F440B542FBA0133
:104FC000CC24C3940C94961A44E050E060E070E066
:104FD000B2CD44E050E060E070E02ACEF88CFF20D3
:104FE00009F444C082E090E0A0E0B0E0A8A0B9A03D
:104FF000CAA0DBA0A80EB91ECA1EDB1EA8A2B9A2B9
:10500000CAA2DBA20C94B61FAC01BD014E7FF10118
:1050100044AF55AF66AF77AFEA89FB8940815181D4
:10502000628173814F7D408351836283738380FFEC
:10503000D8C4406240835183628373838D819E8193
:10504000AF81B88520E102CA29813A81C901A0E077
:10505000B0E040E1D41224CE37FF22CEAF6FBF6F55
:105060001FCE84E090E0A0E0B0E003CE84E090E0CA
:10507000A0E0B0E0BBCF188D112309F45EC082E040
:1050800090E0A0E0B0E0A80EB91ECA1EDB1E0C9492
:105090003F1B84E090E0A0E0B0E064CE8E7FF101A1
:1050A00084AF95AFA6AFB7AFEA89FB8980819181C4
:1050B000A281B3818F7D80839183A283B38310FF0C
:1050C00002C00C94E01611FD02C00C94E70A0C9487
:1050D0008F11D301C2018E7FF10184AF95AFA6AFCE
:1050E000B7AFEA89FB8980819181A281B3818F7DED
:1050F00080839183A283B38340FE02C00C94E016A8
:1051000041FC02C00C94E70A0C948F11188D1123F6
:1051100079F042E050E060E070E0840F951FA61F38
:10512000B71FDFCA04E0402E512C612C712C94CDA6
:1051300044E050E060E070E0F0CF84E090E0A0E078
:10514000B0E0A1CFDB01CA018E7FF10184AF95AF42
:10515000A6AFB7AF8E859F85A889B9898F7DEA896B
:10516000FB8980839183A283B38340FF65C2806201
:1051700080839183A283B3830C94D719230166247F
:105180007724FF2091F140FCF7C341FE1AC06E85E1
:105190007F858889998977276E877F87888B998B08
:1051A000D601C5018827AA27BB27EE84FF8408897A
:1051B0001989E82AF92A0A2B1B2BEE86FF86088B11
:1051C000198B42FE12C00E851F8528893989222736
:1051D000D601C50188279927BB27082B192B2A2B15
:1051E0003B2B0E871F87288B398B43FE12C02E85E1
:1051F0003F8548895989552776016501CC24DD24EE
:10520000EE242C293D294E295F292E873F87488B84
:10521000598B4E855F8568897989AA89BB894D93A9
:105220005D936D937C9313970C94E70AF88CFF20A1
:1052300009F4B3C082E090E0A0E0B0E0080F191FCD
:105240002A1F3B1F0C943B1AB901A801481B590B9C
:105250006A0B7B0B6A017B01C026D126E226F3266E
:1052600048015901E0E8BE1A88269926AA26BB26DD
:10527000C820D920EA20FB20CC24F7FCC394DD24ED
:10528000EE24FF24CC2011F40C94961AB901A80145
:10529000770F440B542FBA01CC24C3940C94961A64
:1052A00081FC02C00C94441FF101E05BFE4F0190B1
:1052B000F081E02D69E173E0C10109950C94441F70
:1052C000E88DEE2309F4F0C042E050E060E070E0C9
:1052D000840F951FA61FB71F0C941E18F88CFF2073
:1052E00009F40CC182E090E0A0E0B0E008A119A1AF
:1052F0002AA13BA1080F191F2A1F3B1F08A319A3AE
:105300002AA33BA30C94061F8B019C010E7FD101A5
:10531000DC960D931D932D933C93DF97EA89FB89CF
:1053200000811181228133810F7D008311832283CB
:10533000338360FFBCC1B901A8014062408351833F
:10534000628373830C94D71984E090E0A0E0B0E00E
:10535000D4CD6894F7F80C94E11EC1FC02C00C9403
:10536000BF1EF101E05BFE4F0190F081E02D69E18D
:1053700073E0C10109950C94BF1E11FD02C00C948D
:10538000AF1EF101E05BFE4F0190F081E02D69E17D
:1053900073E0C10109950C94AF1E84E090E0A0E099
:1053A000B0E04CCF46FE79C24427552737FF02C0F4
:1053B0004F6F5F6F0E94BE5700E10E94195889012C
:1053C0009A01C901B80145FE6DC29301820100270F
:1053D000107F22273327012B022B032B11F00C9473
:1053E0006E0CC12C8301222733270C8B1D8B2E8B37
:1053F0003F8B0C94C71953014201882440EF94223B
:10540000AA24BB2489288A288B2811F00C946E0CBE
:1054100045FECFC1BC018827992777FF02C08F6F57
:105420009F6F46FEC1C14427552737FF02C04F6F0B
:105430005F6F0E948C57C12C730100271127EC8AE3
:10544000FD8A0E8B1F8B0C94C7198CA19DA1AEA158
:10545000BFA18E7FF10184AF95AFA6AFB7AFEA8948
:10546000FB8980819181A281B3818F7D808391832B
:10547000A283B383FCA1F0FF02C00C947F21FCA1A6
:10548000F1FD02C00C94E70A0C948F11288D2223A1
:1054900009F4E2C032E0432E512C612C712C840DB2
:1054A000951DA61DB71D19CB44E050E060E070E0EB
:1054B0000FCF91106C7FA52DAF70F10104E0A09F7C
:1054C000E00DF11D11240081118122813381AF3063
:1054D00009F4CFC1992011F40C9447190C7F0C9456
:1054E0004719188D112379F002E010E020E030E038
:1054F000600F711F821F931F0C94331984E090E09A
:10550000A0E0B0E0F3CE04E010E020E030E0F0CF27
:1055100045FE9DC1BC018827992777FF02C08F6F88
:105520009F6F46FE89C14427552737FF02C04F6F42
:105530005F6F0E948C579B01AC01222757FD23957A
:1055400033274427552728A339A34AA35BA318A1CF
:10555000A3019201FCE05695479537952795FA955A
:10556000D1F7022F0F70F10134E0039FE00DF11D20
:105570001124A080B180C280D380AC8ABD8ACE8A3B
:10558000DF8A0F3009F443C1F88CFF2059F09920CD
:1055900049F02C893D894E895F892C7F2C8B3D8B6E
:1055A0004E8B5F8BAC88BD88CE88DF88A60EB71E79
:1055B000C81ED91EB601A501CC88DD88EE88FF88FB
:1055C0004C155D056E057F0510F418A112600F30B3
:1055D00009F49DC0AC88BD88CE88DF88A082B182E6
:1055E000C282D3826301EE24FF24CC8ADD8AEE8A54
:1055F000FF8A2C892F70F10104E0209FE00DF11D3E
:10560000112460817181828193812F3009F472C0ED
:10561000F88CFF2011F091106C7F11FF04C06F5FB8
:105620007F4F8F4F9F4F10FF1DC06150710981093F
:105630009109C12C0C94C71941FD02C00C94D719D3
:10564000F101E05BFE4F0190F081E02D69E173E034
:10565000C10109950C94D71924E0422E512C612CDC
:10566000712C1DCFC12C0C94C71918A20C94430B9C
:1056700081FD02C00C943022F101E05BFE4F0190ED
:10568000F081E02D69E173E0C10109950C943022AD
:10569000E4E04E2E512C612C712C840D951DA61D1D
:1056A000B71DA88CAA2011F40C94491D43C961FDB3
:1056B00002C00C94D719C4CFA901980144275527DB
:1056C0000C947D19882799270C94731984E090E035
:1056D000A0E0B0E0E80EF91E0A1F1B1F688D6623CC
:1056E00011F40C94761EE2C932E0432E512C612C49
:1056F000712CD3CFF88CFF2069F1F2E0CF2ED12CA2
:10570000E12CF12C6C0D7D1D8E1D9F1D81CF4C89D0
:105710005D896E897F894E7FD101DC964D935D93C3
:105720006D937C93DF974E855F85688979894F7D7E
:10573000EA89FB894083518362837383FC89F0FF8C
:105740000FC04062AA89BB894D935D936D937C9392
:10575000139748CFE4E0CE2ED12CE12CF12CD2CF00
:10576000BC89B1FF3FCFF101E05BFE4F0190F081BA
:10577000E02D69E173E0C101099534CFA4E0AA2EC0
:10578000B12CC12CD12C2A0D3B1D4C1D5D1DF88C5C
:10579000FF2011F40C94291F0C94901FB2E0AB2E43
:1057A000B12CC12CD12CEFCFA9019801442755274A
:1057B0003CCE8827992731CE188D1123F1F042E095
:1057C00050E060E070E0840F951FA61FB71F0CC962
:1057D000F88CFF20B9F083E090E0A0E0B0E00C8905
:1057E0001D892E893F89800F911FA21FB31FF101D0
:1057F00080AF91AFA2AFB3AFE8C844E050E060E043
:1058000070E0E1CF84E090E0A0E0B0E0E8CFF88C79
:10581000FF20B9F022E0C22ED12CE12CF12C2C89F2
:105820003D894E895F892C0D3D1D4E1D5F1D2C8BC2
:105830003D8B4E8B5F8BA8CEA9019801442755273D
:1058400074CEB4E0CB2ED12CE12CF12CE8CF8827FC
:10585000992763CEA4E0AA2EB12CC12CD12C0A0D1D
:105860001B1D2C1D3D1D488D442311F40C9447191C
:1058700031CEB2E0AB2EB12CC12CD12CF0CF588D53
:10588000552309F45CC082E090E0A0E0B0E0C80ECF
:10589000D91EEA1EFB1E0C949D19A90198014427EC
:1058A000552784CDD301C2014CE0B695A7959795B5
:1058B00087954A95D1F78F70F10144E0849FE00D00
:1058C000F11D112440815181628173818F3059F122
:1058D000F88CFF2011F091104C7FDB01CA01800F82
:1058E000911FA21FB31F6C017D01C026D126E226A5
:1058F000F32630580427152726273727C022D12220
:10590000E222F322CC24F7FCC394DD24EE24FF240E
:10591000BC01CD018301222733270C8B1D8B2E8BDD
:105920003F8B0C94C719F88CFF2071F082E090E057
:10593000A0E0B0E0480F591F6A1F7B1FC9CF84E069
:1059400090E0A0E0B0E0A3CF84E090E0A0E0B0E081
:10595000F1CF42E050E060E070E0840F951FA61F99
:10596000B71FF88CFF2011F40C944F1A14C982E071
:1059700090E0A0E0B0E0AECE6A2D6F71C1010E9450
:105980002B094E855F856889798944274A294E8786
:105990005F87688B798BF9CB44E050E060E070E082
:1059A000DCCF84E090E0A0E0B0E0480F591F6A1F10
:1059B0007B1F188D112311F40C94D01FBBC9188DB7
:1059C0001123E1F042E050E060E070E0840F951FA9
:1059D000A61FB71F0C94CF1A82E090E0A0E0B0E0C1
:1059E000E4CF81FF2BCBF101E05BFE4F0190F08112
:1059F000E02D69E173E0C101099520CB44E050E05E
:105A000060E070E0E3CF0F931F93FC01603170F40E
:105A10006F30B1F084E0689FE00DF11D11246081CA
:105A20007181828193811F910F910895603129F1D5
:105A3000613151F160E070E0CB011F910F91089549
:105A4000DC01A05CBF4F6D917D918D919C9125E013
:105A500096958795779567952A95D1F76170772701
:105A60008827992704AD15AD26AD37AD600F711F9E
:105A7000821F931F1F910F910895E05CFF4F60817B
:105A8000718182819381D9CFEC5BFF4F60817181FD
:105A9000828193811F910F910895CF92DF92EF92AF
:105AA000FF926F3079F0FC0174E0679FE00DF11D0B
:105AB00011242083318342835383FF90EF90DF9042
:105AC000CF90089569017A01E894C0F8FC01C4AE52
:105AD000D5AEE6AEF7AEE05CFF4FC080D180E2808D
